:1000000019C033C032C031C030C02FC02EC02DC087
:100010002CC02BC02AC029C028C027C026C025C09C
:1000200024C023C022C059C020C01FC01EC01DC094
:100030001CC01BC011241FBECFEFD4E0DEBFCDBF5C
:1000400011E0A0E0B1E0E8E0F3E002C005900D921D
:10005000A631B107D9F721E0A6E1B1E001C01D92B8
:10006000A731B207E1F720D14DC1CACFFC01DC01B5
:10007000A60FB11D3A9AAE17BF07F9F0819190E82B
:10008000429A782F792300000000000041F4429842
:1000900000000000000000000000000008C0000098
:1000A000000000000000000000000000429896954B
:1000B00011F3000000000000E3CF089580910101DA
:1000C000A2E0B1E0E1E0F1E09D91919391E0E531B2
:1000D000F907D1F78093150108951F920F920FB67B
:1000E0000F9211242F933F934F935F936F937F93BE
:1000F0008F939F93EF93FF933091160180910001AE
:10010000381730F08091C100877F8093C10063C0B1
:10011000E32FE695E695E695F0E0EF5FFE4F8081F0
:1001200090E0432F50E0409550954770552702C00E
:10013000959587954A95E2F780FD02C023E001C0BE
:1001400022E081E0830F909100018917D9F1E82F17
:10015000E695E695E695F0E0EF5FFE4F408150E0D2
:1001600090E08095909587709927BA0102C07595A7
:1001700067958A95E2F760FF02C0206101C028619F
:1001800082E0830F909100018917E1F0E82FE69556
:10019000E695E695F0E0EF5FFE4F408150E090E09D
:1001A0008095909587709927BA0102C075956795DB
:1001B0008A95E2F760FF206483E0830F909100014D
:1001C000891305C09091C100977F9093C10020933F
:1001D000C60080931601FF91EF919F918F917F91BF
:1001E0006F915F914F913F912F910F900FBE0F90A4
:1001F0001F901895E0ECF0E0808182608083E1EC54
:10020000F0E080818062808384E08093C20010925D
:10021000C5001092C400089510921601E1ECF0E0C0
:1002200080818860808308950F931F93CF93DF931D
:10023000DC015898449A419800C0419A00C0449803
:1002400090E0941759F14198292F269526952695E7
:1002500030E086B1EB01C20FD31F85FBEE27E0F93A
:10026000F0E0592F57708F01052E01C0000F0A943E
:10027000EAF70883ED01C20FD31F288130E002C0E6
:10028000359527955A95E2F720FF02C0429A01C0A2
:10029000429800C0419A00C09F5FD3CF589ADF9127
:1002A000CF911F910F910895CF93DF931F92CDB7F8
:1002B000DEB73D9887B18E6187B98AB183608AB90C
:1002C000599A8AEA8983789495DF18E0A5DF44E09B
:1002D000BE016F5F7F4FCB01A7DF8AE090E02FE385
:1002E0003DE043E0215030404040E1F700C00000D5
:1002F00028B1212728B9019791F7E0DE89818095FF
:080300008983E4CFF894FFCFDC
:10030800A80F00000F00000F00000F00000F0000F2
:060318000F00000F0000C1
:0400000300000218DF
:00000001FF
